{
  "_format": "hh-sol-artifact-1",
  "contractName": "Farm",
  "sourceName": "contracts/Farm.sol",
  "abi": [
    {
      "inputs": [
        {
          "internalType": "address",
          "name": "_authorityCenter",
          "type": "address"
        },
        {
          "internalType": "string",
          "name": "_name",
          "type": "string"
        },
        {
          "internalType": "string",
          "name": "_location",
          "type": "string"
        },
        {
          "internalType": "string",
          "name": "_ipfsHash",
          "type": "string"
        }
      ],
      "stateMutability": "nonpayable",
      "type": "constructor"
    },
    {
      "anonymous": false,
      "inputs": [
        {
          "indexed": false,
          "internalType": "string",
          "name": "name",
          "type": "string"
        },
        {
          "indexed": false,
          "internalType": "string",
          "name": "location",
          "type": "string"
        },
        {
          "indexed": false,
          "internalType": "string",
          "name": "ipfsHash",
          "type": "string"
        }
      ],
      "name": "FarmInfoUpdated",
      "type": "event"
    },
    {
      "inputs": [],
      "name": "authorityCenter",
      "outputs": [
        {
          "internalType": "contract AuthorityCenter",
          "name": "",
          "type": "address"
        }
      ],
      "stateMutability": "view",
      "type": "function"
    },
    {
      "inputs": [],
      "name": "ipfsHash",
      "outputs": [
        {
          "internalType": "string",
          "name": "",
          "type": "string"
        }
      ],
      "stateMutability": "view",
      "type": "function"
    },
    {
      "inputs": [],
      "name": "isAuthorized",
      "outputs": [
        {
          "internalType": "bool",
          "name": "",
          "type": "bool"
        }
      ],
      "stateMutability": "view",
      "type": "function"
    },
    {
      "inputs": [],
      "name": "location",
      "outputs": [
        {
          "internalType": "string",
          "name": "",
          "type": "string"
        }
      ],
      "stateMutability": "view",
      "type": "function"
    },
    {
      "inputs": [],
      "name": "name",
      "outputs": [
        {
          "internalType": "string",
          "name": "",
          "type": "string"
        }
      ],
      "stateMutability": "view",
      "type": "function"
    },
    {
      "inputs": [],
      "name": "owner",
      "outputs": [
        {
          "internalType": "address",
          "name": "",
          "type": "address"
        }
      ],
      "stateMutability": "view",
      "type": "function"
    },
    {
      "inputs": [
        {
          "internalType": "string",
          "name": "_name",
          "type": "string"
        },
        {
          "internalType": "string",
          "name": "_location",
          "type": "string"
        },
        {
          "internalType": "string",
          "name": "_ipfsHash",
          "type": "string"
        }
      ],
      "name": "updateInfo",
      "outputs": [],
      "stateMutability": "nonpayable",
      "type": "function"
    }
  ],
  "bytecode": "0x60806040523480156200001157600080fd5b50604051620009e9380380620009e9833981016040819052620000349162000159565b600080546001600160a01b0386166001600160a01b031991821617909155600180549091163317905560026200006b84826200029a565b5060036200007a83826200029a565b5060046200008982826200029a565b505050505062000366565b634e487b7160e01b600052604160045260246000fd5b600082601f830112620000bc57600080fd5b81516001600160401b0380821115620000d957620000d962000094565b604051601f8301601f19908116603f0116810190828211818310171562000104576200010462000094565b816040528381526020925086838588010111156200012157600080fd5b600091505b8382101562000145578582018301518183018401529082019062000126565b600093810190920192909252949350505050565b600080600080608085870312156200017057600080fd5b84516001600160a01b03811681146200018857600080fd5b60208601519094506001600160401b0380821115620001a657600080fd5b620001b488838901620000aa565b94506040870151915080821115620001cb57600080fd5b620001d988838901620000aa565b93506060870151915080821115620001f057600080fd5b50620001ff87828801620000aa565b91505092959194509250565b600181811c908216806200022057607f821691505b6020821081036200024157634e487b7160e01b600052602260045260246000fd5b50919050565b601f8211156200029557600081815260208120601f850160051c81016020861015620002705750805b601f850160051c820191505b8181101562000291578281556001016200027c565b5050505b505050565b81516001600160401b03811115620002b657620002b662000094565b620002ce81620002c784546200020b565b8462000247565b602080601f831160018114620003065760008415620002ed5750858301515b600019600386901b1c1916600185901b17855562000291565b600085815260208120601f198616915b82811015620003375788860151825594840194600190910190840162000316565b5085821015620003565787850151600019600388901b60f8161c191681555b5050505050600190811b01905550565b61067380620003766000396000f3fe608060405234801561001057600080fd5b506004361061007d5760003560e01c80638da5cb5b1161005b5780638da5cb5b146100c0578063a4a21c3c146100eb578063c623674f14610100578063fa2efad21461010857600080fd5b806306fdde0314610082578063516f279e146100a057806357e6c2f4146100a8575b600080fd5b61008a61011b565b604051610097919061034a565b60405180910390f35b61008a6101a9565b6100b06101b6565b6040519015158152602001610097565b6001546100d3906001600160a01b031681565b6040516001600160a01b039091168152602001610097565b6100fe6100f9366004610407565b610228565b005b61008a6102f7565b6000546100d3906001600160a01b031681565b600280546101289061048f565b80601f01602080910402602001604051908101604052809291908181526020018280546101549061048f565b80156101a15780601f10610176576101008083540402835291602001916101a1565b820191906000526020600020905b81548152906001019060200180831161018457829003601f168201915b505050505081565b600380546101289061048f565b6000805460405163637012c760e01b81523060048201526001600160a01b039091169063637012c790602401602060405180830381865afa1580156101ff573d6000803e3d6000fd5b505050506040513d601f19601f8201168201806040525081019061022391906104c9565b905090565b6001546001600160a01b031633146102905760405162461bcd60e51b815260206004820152602160248201527f4f6e6c79206f776e65722063616e2063616c6c20746869732066756e6374696f6044820152603760f91b606482015260840160405180910390fd5b600261029c848261053a565b5060036102a9838261053a565b5060046102b6828261053a565b507f54504f5f2f04349886df98db778d0d0db1cdc3c36ae99c1f29cca1c8ce4f9fee8383836040516102ea939291906105fa565b60405180910390a1505050565b600480546101289061048f565b6000815180845260005b8181101561032a5760208185018101518683018201520161030e565b506000602082860101526020601f19601f83011685010191505092915050565b60208152600061035d6020830184610304565b9392505050565b634e487b7160e01b600052604160045260246000fd5b600082601f83011261038b57600080fd5b813567ffffffffffffffff808211156103a6576103a6610364565b604051601f8301601f19908116603f011681019082821181831017156103ce576103ce610364565b816040528381528660208588010111156103e757600080fd5b836020870160208301376000602085830101528094505050505092915050565b60008060006060848603121561041c57600080fd5b833567ffffffffffffffff8082111561043457600080fd5b6104408783880161037a565b9450602086013591508082111561045657600080fd5b6104628783880161037a565b9350604086013591508082111561047857600080fd5b506104858682870161037a565b9150509250925092565b600181811c908216806104a357607f821691505b6020821081036104c357634e487b7160e01b600052602260045260246000fd5b50919050565b6000602082840312156104db57600080fd5b8151801515811461035d57600080fd5b601f82111561053557600081815260208120601f850160051c810160208610156105125750805b601f850160051c820191505b818110156105315782815560010161051e565b5050505b505050565b815167ffffffffffffffff81111561055457610554610364565b61056881610562845461048f565b846104eb565b602080601f83116001811461059d57600084156105855750858301515b600019600386901b1c1916600185901b178555610531565b600085815260208120601f198616915b828110156105cc578886015182559484019460019091019084016105ad565b50858210156105ea5787850151600019600388901b60f8161c191681555b5050505050600190811b01905550565b60608152600061060d6060830186610304565b828103602084015261061f8186610304565b905082810360408401526106338185610304565b969550505050505056fea2646970667358221220cd4449732ffc532298f25b9dc9ea08bc9b4035879d6f52c715d1bbcf2d1dfe1964736f6c63430008140033",
  "linkReferences": {},
  "deployedLinkReferences": {}
}