{
  "_format": "hh-sol-artifact-1",
  "contractName": "AuthorityCenter",
  "sourceName": "contracts/AuthorityCenter.sol",
  "abi": [
    {
      "inputs": [],
      "stateMutability": "nonpayable",
      "type": "constructor"
    },
    {
      "anonymous": false,
      "inputs": [
        {
          "indexed": true,
          "internalType": "address",
          "name": "authority",
          "type": "address"
        }
      ],
      "name": "AuthorityAdded",
      "type": "event"
    },
    {
      "anonymous": false,
      "inputs": [
        {
          "indexed": true,
          "internalType": "address",
          "name": "authority",
          "type": "address"
        }
      ],
      "name": "AuthorityRemoved",
      "type": "event"
    },
    {
      "anonymous": false,
      "inputs": [
        {
          "indexed": true,
          "internalType": "address",
          "name": "farm",
          "type": "address"
        },
        {
          "indexed": false,
          "internalType": "string",
          "name": "name",
          "type": "string"
        },
        {
          "indexed": false,
          "internalType": "string",
          "name": "location",
          "type": "string"
        }
      ],
      "name": "FarmRegistered",
      "type": "event"
    },
    {
      "anonymous": false,
      "inputs": [
        {
          "indexed": true,
          "internalType": "address",
          "name": "farm",
          "type": "address"
        }
      ],
      "name": "FarmRemoved",
      "type": "event"
    },
    {
      "inputs": [
        {
          "internalType": "address",
          "name": "_authority",
          "type": "address"
        }
      ],
      "name": "addAuthority",
      "outputs": [],
      "stateMutability": "nonpayable",
      "type": "function"
    },
    {
      "inputs": [
        {
          "internalType": "address",
          "name": "",
          "type": "address"
        }
      ],
      "name": "farmInfo",
      "outputs": [
        {
          "internalType": "string",
          "name": "name",
          "type": "string"
        },
        {
          "internalType": "string",
          "name": "location",
          "type": "string"
        },
        {
          "internalType": "string",
          "name": "ipfsHash",
          "type": "string"
        },
        {
          "internalType": "uint256",
          "name": "registrationDate",
          "type": "uint256"
        },
        {
          "internalType": "bool",
          "name": "isActive",
          "type": "bool"
        }
      ],
      "stateMutability": "view",
      "type": "function"
    },
    {
      "inputs": [
        {
          "internalType": "address",
          "name": "",
          "type": "address"
        }
      ],
      "name": "isAuthority",
      "outputs": [
        {
          "internalType": "bool",
          "name": "",
          "type": "bool"
        }
      ],
      "stateMutability": "view",
      "type": "function"
    },
    {
      "inputs": [
        {
          "internalType": "address",
          "name": "",
          "type": "address"
        }
      ],
      "name": "isFarm",
      "outputs": [
        {
          "internalType": "bool",
          "name": "",
          "type": "bool"
        }
      ],
      "stateMutability": "view",
      "type": "function"
    },
    {
      "inputs": [],
      "name": "owner",
      "outputs": [
        {
          "internalType": "address",
          "name": "",
          "type": "address"
        }
      ],
      "stateMutability": "view",
      "type": "function"
    },
    {
      "inputs": [
        {
          "internalType": "address",
          "name": "_farm",
          "type": "address"
        },
        {
          "internalType": "string",
          "name": "_name",
          "type": "string"
        },
        {
          "internalType": "string",
          "name": "_location",
          "type": "string"
        },
        {
          "internalType": "string",
          "name": "_ipfsHash",
          "type": "string"
        }
      ],
      "name": "registerFarm",
      "outputs": [],
      "stateMutability": "nonpayable",
      "type": "function"
    },
    {
      "inputs": [
        {
          "internalType": "address",
          "name": "_authority",
          "type": "address"
        }
      ],
      "name": "removeAuthority",
      "outputs": [],
      "stateMutability": "nonpayable",
      "type": "function"
    },
    {
      "inputs": [
        {
          "internalType": "address",
          "name": "_farm",
          "type": "address"
        }
      ],
      "name": "removeFarm",
      "outputs": [],
      "stateMutability": "nonpayable",
      "type": "function"
    },
    {
      "inputs": [
        {
          "internalType": "address",
          "name": "_farm",
          "type": "address"
        },
        {
          "internalType": "string",
          "name": "_ipfsHash",
          "type": "string"
        }
      ],
      "name": "updateFarmInfo",
      "outputs": [],
      "stateMutability": "nonpayable",
      "type": "function"
    }
  ],
  "bytecode": "0x608060405234801561001057600080fd5b50600080546001600160a01b0319163390811782558152600160208190526040909120805460ff19169091179055610d908061004d6000396000f3fe608060405234801561001057600080fd5b50600436106100935760003560e01c80638da5cb5b116100665780638da5cb5b1461012c578063a1bc09bc14610157578063d544e0101461016a578063f69eaf231461017d578063fd2daf1e1461019057600080fd5b80632330f2471461009857806326defa73146100d05780632915cbec146100e5578063637012c714610109575b600080fd5b6100bb6100a6366004610919565b60016020526000908152604090205460ff1681565b60405190151581526020015b60405180910390f35b6100e36100de366004610919565b6101a3565b005b6100f86100f3366004610919565b6102db565b6040516100c7959493929190610981565b6100bb610117366004610919565b60026020526000908152604090205460ff1681565b60005461013f906001600160a01b031681565b6040516001600160a01b0390911681526020016100c7565b6100e3610165366004610a77565b6104a5565b6100e3610178366004610919565b61068a565b6100e361018b366004610b10565b610758565b6100e361019e366004610919565b61080f565b6000546001600160a01b031633146101d65760405162461bcd60e51b81526004016101cd90610b5e565b60405180910390fd5b6001600160a01b03811661022c5760405162461bcd60e51b815260206004820152601960248201527f496e76616c696420617574686f7269747920616464726573730000000000000060448201526064016101cd565b6001600160a01b03811660009081526001602052604090205460ff161561028c5760405162461bcd60e51b8152602060048201526014602482015273416c726561647920616e20617574686f7269747960601b60448201526064016101cd565b6001600160a01b0381166000818152600160208190526040808320805460ff1916909217909155517f550a8ae64ec9d6640b6f168a26d3e6364b90defe8110c92135aa775b279e54ea9190a250565b6003602052600090815260409020805481906102f690610b9f565b80601f016020809104026020016040519081016040528092919081815260200182805461032290610b9f565b801561036f5780601f106103445761010080835404028352916020019161036f565b820191906000526020600020905b81548152906001019060200180831161035257829003601f168201915b50505050509080600101805461038490610b9f565b80601f01602080910402602001604051908101604052809291908181526020018280546103b090610b9f565b80156103fd5780601f106103d2576101008083540402835291602001916103fd565b820191906000526020600020905b8154815290600101906020018083116103e057829003601f168201915b50505050509080600201805461041290610b9f565b80601f016020809104026020016040519081016040528092919081815260200182805461043e90610b9f565b801561048b5780601f106104605761010080835404028352916020019161048b565b820191906000526020600020905b81548152906001019060200180831161046e57829003601f168201915b50505050600383015460049093015491929160ff16905085565b3360009081526001602052604090205460ff166104d45760405162461bcd60e51b81526004016101cd90610bd9565b6001600160a01b0384166105215760405162461bcd60e51b8152602060048201526014602482015273496e76616c6964206661726d206164647265737360601b60448201526064016101cd565b6001600160a01b03841660009081526002602052604090205460ff161561058a5760405162461bcd60e51b815260206004820152601760248201527f4661726d20616c7265616479207265676973746572656400000000000000000060448201526064016101cd565b6040805160a0810182528481526020808201859052818301849052426060830152600160808301526001600160a01b0387166000908152600390915291909120815181906105d89082610c6c565b50602082015160018201906105ed9082610c6c565b50604082015160028201906106029082610c6c565b50606082015160038201556080909101516004909101805491151560ff199283161790556001600160a01b03851660008181526002602052604090819020805490931660011790925590517f06e43c05e0b77d4ac00d0a55f3d0b976cbe1a1e0041b34e94b4da111e05728229061067c9086908690610d2c565b60405180910390a250505050565b6000546001600160a01b031633146106b45760405162461bcd60e51b81526004016101cd90610b5e565b6001600160a01b03811660009081526001602052604090205460ff1661070f5760405162461bcd60e51b815260206004820152601060248201526f4e6f7420616e20617574686f7269747960801b60448201526064016101cd565b6001600160a01b038116600081815260016020526040808220805460ff19169055517f272215cde179041f7a3e8da6f8aabc7c8fc1336ccd73aba698cb825a80d3be489190a250565b3360009081526001602052604090205460ff166107875760405162461bcd60e51b81526004016101cd90610bd9565b6001600160a01b03821660009081526002602052604090205460ff166107e55760405162461bcd60e51b815260206004820152601360248201527211985c9b481b9bdd081c9959da5cdd195c9959606a1b60448201526064016101cd565b6001600160a01b038216600090815260036020526040902060020161080a8282610c6c565b505050565b3360009081526001602052604090205460ff1661083e5760405162461bcd60e51b81526004016101cd90610bd9565b6001600160a01b03811660009081526002602052604090205460ff1661089c5760405162461bcd60e51b815260206004820152601360248201527211985c9b481b9bdd081c9959da5cdd195c9959606a1b60448201526064016101cd565b6001600160a01b0381166000818152600260209081526040808320805460ff1990811690915560039092528083206004018054909216909155517ff5063769a2e6c3022139e75b86de10fd56ad5d1c5b891d3c09eaf17fe95bb5499190a250565b80356001600160a01b038116811461091457600080fd5b919050565b60006020828403121561092b57600080fd5b610934826108fd565b9392505050565b6000815180845260005b8181101561096157602081850181015186830182015201610945565b506000602082860101526020601f19601f83011685010191505092915050565b60a08152600061099460a083018861093b565b82810360208401526109a6818861093b565b905082810360408401526109ba818761093b565b606084019590955250509015156080909101529392505050565b634e487b7160e01b600052604160045260246000fd5b600082601f8301126109fb57600080fd5b813567ffffffffffffffff80821115610a1657610a166109d4565b604051601f8301601f19908116603f01168101908282118183101715610a3e57610a3e6109d4565b81604052838152866020858801011115610a5757600080fd5b836020870160208301376000602085830101528094505050505092915050565b60008060008060808587031215610a8d57600080fd5b610a96856108fd565b9350602085013567ffffffffffffffff80821115610ab357600080fd5b610abf888389016109ea565b94506040870135915080821115610ad557600080fd5b610ae1888389016109ea565b93506060870135915080821115610af757600080fd5b50610b04878288016109ea565b91505092959194509250565b60008060408385031215610b2357600080fd5b610b2c836108fd565b9150602083013567ffffffffffffffff811115610b4857600080fd5b610b54858286016109ea565b9150509250929050565b60208082526021908201527f4f6e6c79206f776e65722063616e2063616c6c20746869732066756e6374696f6040820152603760f91b606082015260800190565b600181811c90821680610bb357607f821691505b602082108103610bd357634e487b7160e01b600052602260045260246000fd5b50919050565b60208082526025908201527f4f6e6c7920617574686f726974792063616e2063616c6c20746869732066756e60408201526431ba34b7b760d91b606082015260800190565b601f82111561080a57600081815260208120601f850160051c81016020861015610c455750805b601f850160051c820191505b81811015610c6457828155600101610c51565b505050505050565b815167ffffffffffffffff811115610c8657610c866109d4565b610c9a81610c948454610b9f565b84610c1e565b602080601f831160018114610ccf5760008415610cb75750858301515b600019600386901b1c1916600185901b178555610c64565b600085815260208120601f198616915b82811015610cfe57888601518255948401946001909101908401610cdf565b5085821015610d1c5787850151600019600388901b60f8161c191681555b5050505050600190811b01905550565b604081526000610d3f604083018561093b565b8281036020840152610d51818561093b565b9594505050505056fea26469706673582212200d379c4975faa0c860531b6e045518350018da9b4e2df8163121c9b17839790664736f6c63430008140033",
  "linkReferences": {},
  "deployedLinkReferences": {}
}