{
  "_format": "hh-sol-artifact-1",
  "contractName": "Farm",
  "sourceName": "contracts/Farm.sol",
  "abi": [
    {
      "inputs": [
        {
          "internalType": "address",
          "name": "_owner",
          "type": "address"
        },
        {
          "internalType": "string",
          "name": "_name",
          "type": "string"
        },
        {
          "internalType": "string",
          "name": "_metadataURI",
          "type": "string"
        }
      ],
      "stateMutability": "nonpayable",
      "type": "constructor"
    },
    {
      "anonymous": false,
      "inputs": [
        {
          "indexed": true,
          "internalType": "uint32",
          "name": "chickenId",
          "type": "uint32"
        },
        {
          "indexed": false,
          "internalType": "uint32",
          "name": "birthTime",
          "type": "uint32"
        },
        {
          "indexed": false,
          "internalType": "string",
          "name": "metadataURI",
          "type": "string"
        }
      ],
      "name": "ChickenAdded",
      "type": "event"
    },
    {
      "anonymous": false,
      "inputs": [
        {
          "indexed": true,
          "internalType": "uint32",
          "name": "chickenId",
          "type": "uint32"
        }
      ],
      "name": "ChickenRemoved",
      "type": "event"
    },
    {
      "anonymous": false,
      "inputs": [
        {
          "indexed": true,
          "internalType": "uint32",
          "name": "eggId",
          "type": "uint32"
        },
        {
          "indexed": false,
          "internalType": "uint32",
          "name": "chickenId",
          "type": "uint32"
        },
        {
          "indexed": false,
          "internalType": "uint32",
          "name": "birthTime",
          "type": "uint32"
        },
        {
          "indexed": false,
          "internalType": "string",
          "name": "metadataURI",
          "type": "string"
        }
      ],
      "name": "EggAdded",
      "type": "event"
    },
    {
      "inputs": [],
      "name": "chickenCount",
      "outputs": [
        {
          "internalType": "uint32",
          "name": "",
          "type": "uint32"
        }
      ],
      "stateMutability": "view",
      "type": "function"
    },
    {
      "inputs": [
        {
          "internalType": "uint32",
          "name": "",
          "type": "uint32"
        }
      ],
      "name": "chickens",
      "outputs": [
        {
          "internalType": "uint32",
          "name": "birthTime",
          "type": "uint32"
        },
        {
          "internalType": "string",
          "name": "metadataURI",
          "type": "string"
        },
        {
          "internalType": "bool",
          "name": "isAlive",
          "type": "bool"
        }
      ],
      "stateMutability": "view",
      "type": "function"
    },
    {
      "inputs": [],
      "name": "eggCount",
      "outputs": [
        {
          "internalType": "uint32",
          "name": "",
          "type": "uint32"
        }
      ],
      "stateMutability": "view",
      "type": "function"
    },
    {
      "inputs": [
        {
          "internalType": "uint32",
          "name": "",
          "type": "uint32"
        }
      ],
      "name": "eggs",
      "outputs": [
        {
          "internalType": "uint32",
          "name": "chickenId",
          "type": "uint32"
        },
        {
          "internalType": "uint32",
          "name": "birthTime",
          "type": "uint32"
        },
        {
          "internalType": "string",
          "name": "metadataURI",
          "type": "string"
        }
      ],
      "stateMutability": "view",
      "type": "function"
    },
    {
      "inputs": [],
      "name": "metadataURI",
      "outputs": [
        {
          "internalType": "string",
          "name": "",
          "type": "string"
        }
      ],
      "stateMutability": "view",
      "type": "function"
    },
    {
      "inputs": [],
      "name": "name",
      "outputs": [
        {
          "internalType": "string",
          "name": "",
          "type": "string"
        }
      ],
      "stateMutability": "view",
      "type": "function"
    },
    {
      "inputs": [],
      "name": "owner",
      "outputs": [
        {
          "internalType": "address",
          "name": "",
          "type": "address"
        }
      ],
      "stateMutability": "view",
      "type": "function"
    },
    {
      "inputs": [
        {
          "internalType": "string",
          "name": "_metadataURI",
          "type": "string"
        }
      ],
      "name": "registerChicken",
      "outputs": [],
      "stateMutability": "nonpayable",
      "type": "function"
    },
    {
      "inputs": [
        {
          "internalType": "uint32",
          "name": "chickenId",
          "type": "uint32"
        },
        {
          "internalType": "string",
          "name": "_metadataURI",
          "type": "string"
        }
      ],
      "name": "registerEgg",
      "outputs": [],
      "stateMutability": "nonpayable",
      "type": "function"
    },
    {
      "inputs": [
        {
          "internalType": "uint32",
          "name": "chickenId",
          "type": "uint32"
        }
      ],
      "name": "removeChicken",
      "outputs": [],
      "stateMutability": "nonpayable",
      "type": "function"
    },
    {
      "inputs": [
        {
          "internalType": "string",
          "name": "_name",
          "type": "string"
        },
        {
          "internalType": "string",
          "name": "_metadataURI",
          "type": "string"
        }
      ],
      "name": "updateInfo",
      "outputs": [],
      "stateMutability": "nonpayable",
      "type": "function"
    }
  ],
  "bytecode": "0x60806040523480156200001157600080fd5b5060405162000f5e38038062000f5e83398101604081905262000034916200013b565b600080546001600160a01b0319166001600160a01b03851617905560016200005d838262000254565b5060026200006c828262000254565b5050505062000320565b634e487b7160e01b600052604160045260246000fd5b600082601f8301126200009e57600080fd5b81516001600160401b0380821115620000bb57620000bb62000076565b604051601f8301601f19908116603f01168101908282118183101715620000e657620000e662000076565b816040528381526020925086838588010111156200010357600080fd5b600091505b8382101562000127578582018301518183018401529082019062000108565b600093810190920192909252949350505050565b6000806000606084860312156200015157600080fd5b83516001600160a01b03811681146200016957600080fd5b60208501519093506001600160401b03808211156200018757600080fd5b62000195878388016200008c565b93506040860151915080821115620001ac57600080fd5b50620001bb868287016200008c565b9150509250925092565b600181811c90821680620001da57607f821691505b602082108103620001fb57634e487b7160e01b600052602260045260246000fd5b50919050565b601f8211156200024f57600081815260208120601f850160051c810160208610156200022a5750805b601f850160051c820191505b818110156200024b5782815560010162000236565b5050505b505050565b81516001600160401b0381111562000270576200027062000076565b6200028881620002818454620001c5565b8462000201565b602080601f831160018114620002c05760008415620002a75750858301515b600019600386901b1c1916600185901b1785556200024b565b600085815260208120601f198616915b82811015620002f157888601518255948401946001909101908401620002d0565b5085821015620003105787850151600019600388901b60f8161c191681555b5050505050600190811b01905550565b610c2e80620003306000396000f3fe608060405234801561001057600080fd5b50600436106100a95760003560e01c80634f3ef2ed116100715780634f3ef2ed14610129578063649419bb1461013957806384e6a9231461015b5780638da5cb5b1461017d578063ce7c145a146101a8578063eb83cb06146101bb57600080fd5b806303ee438c146100ae57806306fdde03146100cc5780630d8cb7b0146100d45780632e60bdca146100e957806347d5a09114610116575b600080fd5b6100b66101ce565b6040516100c391906107e6565b60405180910390f35b6100b661025c565b6100e76100e23660046108bc565b610269565b005b60035461010190640100000000900463ffffffff1681565b60405163ffffffff90911681526020016100c3565b6100e761012436600461090a565b610401565b6003546101019063ffffffff1681565b61014c610147366004610964565b610449565b6040516100c39392919061097f565b61016e610169366004610964565b610501565b6040516100c3939291906109b1565b600054610190906001600160a01b031681565b6040516001600160a01b0390911681526020016100c3565b6100e76101b63660046109e2565b6105b6565b6100e76101c9366004610964565b6106ce565b600280546101db90610a1f565b80601f016020809104026020016040519081016040528092919081815260200182805461020790610a1f565b80156102545780601f1061022957610100808354040283529160200191610254565b820191906000526020600020905b81548152906001019060200180831161023757829003601f168201915b505050505081565b600180546101db90610a1f565b6000546001600160a01b0316331461029c5760405162461bcd60e51b815260040161029390610a59565b60405180910390fd5b63ffffffff821660009081526004602052604090206002015460ff166102fb5760405162461bcd60e51b8152602060048201526014602482015273436869636b656e206973206e6f7420616c69766560601b6044820152606401610293565b60038054640100000000900463ffffffff1690600461031983610a9a565b82546101009290920a63ffffffff8181021990931691831602179091556040805160608101825285831681524283166020808301918252828401878152600354640100000000908190048716600090815260059093529490912083518154935190871667ffffffffffffffff199094169390931792909516909302178355905190925060018201906103ab9082610b19565b505060035460405164010000000090910463ffffffff1691507f0af75a1532400f043aef5d9484a48ca4425a108ceecbb0e68e8e3b6ea140f990906103f59085904290869061097f565b60405180910390a25050565b6000546001600160a01b0316331461042b5760405162461bcd60e51b815260040161029390610a59565b60016104378382610b19565b5060026104448282610b19565b505050565b6005602052600090815260409020805460018201805463ffffffff808416946401000000009094041692919061047e90610a1f565b80601f01602080910402602001604051908101604052809291908181526020018280546104aa90610a1f565b80156104f75780601f106104cc576101008083540402835291602001916104f7565b820191906000526020600020905b8154815290600101906020018083116104da57829003601f168201915b5050505050905083565b6004602052600090815260409020805460018201805463ffffffff909216929161052a90610a1f565b80601f016020809104026020016040519081016040528092919081815260200182805461055690610a1f565b80156105a35780601f10610578576101008083540402835291602001916105a3565b820191906000526020600020905b81548152906001019060200180831161058657829003601f168201915b5050506002909301549192505060ff1683565b6000546001600160a01b031633146105e05760405162461bcd60e51b815260040161029390610a59565b6003805463ffffffff169060006105f683610a9a565b82546101009290920a63ffffffff81810219909316918316021790915560408051606081018252428316815260208082018681526001838501819052600354861660009081526004909352939091208251815463ffffffff19169516949094178455519093509082019061066a9082610b19565b50604091820151600291909101805460ff1916911515919091179055600354905163ffffffff909116907f8edc586b5d46c5202da96dc8f32be34ec046f5d15b5eee9b2723aceb5771bcaa906106c39042908590610bd9565b60405180910390a250565b6000546001600160a01b031633146106f85760405162461bcd60e51b815260040161029390610a59565b63ffffffff811660009081526004602052604090206002015460ff166107575760405162461bcd60e51b8152602060048201526014602482015273436869636b656e206973206e6f7420616c69766560601b6044820152606401610293565b63ffffffff8116600081815260046020526040808220600201805460ff19169055517fc065b03385b696bad1e2a6c5e56d2cd43100abab7a1d5fd9f1dc65c6315c80489190a250565b6000815180845260005b818110156107c6576020818501810151868301820152016107aa565b506000602082860101526020601f19601f83011685010191505092915050565b6020815260006107f960208301846107a0565b9392505050565b803563ffffffff8116811461081457600080fd5b919050565b634e487b7160e01b600052604160045260246000fd5b600082601f83011261084057600080fd5b813567ffffffffffffffff8082111561085b5761085b610819565b604051601f8301601f19908116603f0116810190828211818310171561088357610883610819565b8160405283815286602085880101111561089c57600080fd5b836020870160208301376000602085830101528094505050505092915050565b600080604083850312156108cf57600080fd5b6108d883610800565b9150602083013567ffffffffffffffff8111156108f457600080fd5b6109008582860161082f565b9150509250929050565b6000806040838503121561091d57600080fd5b823567ffffffffffffffff8082111561093557600080fd5b6109418683870161082f565b9350602085013591508082111561095757600080fd5b506109008582860161082f565b60006020828403121561097657600080fd5b6107f982610800565b600063ffffffff8086168352808516602084015250606060408301526109a860608301846107a0565b95945050505050565b63ffffffff841681526060602082015260006109d060608301856107a0565b90508215156040830152949350505050565b6000602082840312156109f457600080fd5b813567ffffffffffffffff811115610a0b57600080fd5b610a178482850161082f565b949350505050565b600181811c90821680610a3357607f821691505b602082108103610a5357634e487b7160e01b600052602260045260246000fd5b50919050565b60208082526021908201527f4f6e6c79206f776e65722063616e2063616c6c20746869732066756e6374696f6040820152603760f91b606082015260800190565b600063ffffffff808316818103610ac157634e487b7160e01b600052601160045260246000fd5b6001019392505050565b601f82111561044457600081815260208120601f850160051c81016020861015610af25750805b601f850160051c820191505b81811015610b1157828155600101610afe565b505050505050565b815167ffffffffffffffff811115610b3357610b33610819565b610b4781610b418454610a1f565b84610acb565b602080601f831160018114610b7c5760008415610b645750858301515b600019600386901b1c1916600185901b178555610b11565b600085815260208120601f198616915b82811015610bab57888601518255948401946001909101908401610b8c565b5085821015610bc95787850151600019600388901b60f8161c191681555b5050505050600190811b01905550565b63ffffffff83168152604060208201526000610a1760408301846107a056fea2646970667358221220e13d3e7023a0e28eebee26aa57d46205d97a43a415a0d3b34ea4e7d7cacc831564736f6c63430008140033",
  "linkReferences": {},
  "deployedLinkReferences": {}
}