{
  "_format": "hh-sol-artifact-1",
  "contractName": "AuthorityCenter",
  "sourceName": "contracts/AuthorityCenter.sol",
  "abi": [
    {
      "inputs": [],
      "stateMutability": "nonpayable",
      "type": "constructor"
    },
    {
      "anonymous": false,
      "inputs": [
        {
          "indexed": true,
          "internalType": "address",
          "name": "authority",
          "type": "address"
        }
      ],
      "name": "AuthorityAdded",
      "type": "event"
    },
    {
      "anonymous": false,
      "inputs": [
        {
          "indexed": true,
          "internalType": "address",
          "name": "authority",
          "type": "address"
        }
      ],
      "name": "AuthorityRemoved",
      "type": "event"
    },
    {
      "anonymous": false,
      "inputs": [
        {
          "indexed": true,
          "internalType": "address",
          "name": "farm",
          "type": "address"
        }
      ],
      "name": "FarmRegistered",
      "type": "event"
    },
    {
      "anonymous": false,
      "inputs": [
        {
          "indexed": true,
          "internalType": "address",
          "name": "farm",
          "type": "address"
        }
      ],
      "name": "FarmRemoved",
      "type": "event"
    },
    {
      "inputs": [
        {
          "internalType": "address",
          "name": "_authority",
          "type": "address"
        }
      ],
      "name": "addAuthority",
      "outputs": [],
      "stateMutability": "nonpayable",
      "type": "function"
    },
    {
      "inputs": [
        {
          "internalType": "address",
          "name": "",
          "type": "address"
        }
      ],
      "name": "isAuthority",
      "outputs": [
        {
          "internalType": "bool",
          "name": "",
          "type": "bool"
        }
      ],
      "stateMutability": "view",
      "type": "function"
    },
    {
      "inputs": [
        {
          "internalType": "address",
          "name": "",
          "type": "address"
        }
      ],
      "name": "isCertifiedFarm",
      "outputs": [
        {
          "internalType": "bool",
          "name": "",
          "type": "bool"
        }
      ],
      "stateMutability": "view",
      "type": "function"
    },
    {
      "inputs": [],
      "name": "owner",
      "outputs": [
        {
          "internalType": "address",
          "name": "",
          "type": "address"
        }
      ],
      "stateMutability": "view",
      "type": "function"
    },
    {
      "inputs": [
        {
          "internalType": "address",
          "name": "_farm",
          "type": "address"
        }
      ],
      "name": "registerFarm",
      "outputs": [],
      "stateMutability": "nonpayable",
      "type": "function"
    },
    {
      "inputs": [
        {
          "internalType": "address",
          "name": "_authority",
          "type": "address"
        }
      ],
      "name": "removeAuthority",
      "outputs": [],
      "stateMutability": "nonpayable",
      "type": "function"
    },
    {
      "inputs": [
        {
          "internalType": "address",
          "name": "_farm",
          "type": "address"
        }
      ],
      "name": "removeFarm",
      "outputs": [],
      "stateMutability": "nonpayable",
      "type": "function"
    }
  ],
  "bytecode": "0x608060405234801561001057600080fd5b50600080546001600160a01b0319163390811782558152600160208190526040909120805460ff191690911790556107038061004d6000396000f3fe608060405234801561001057600080fd5b506004361061007d5760003560e01c8063d544e0101161005b578063d544e010146100fa578063edcd5d171461010d578063f5cc592f14610120578063fd2daf1e1461014357600080fd5b80632330f2471461008257806326defa73146100ba5780638da5cb5b146100cf575b600080fd5b6100a5610090366004610629565b60016020526000908152604090205460ff1681565b60405190151581526020015b60405180910390f35b6100cd6100c8366004610629565b610156565b005b6000546100e2906001600160a01b031681565b6040516001600160a01b0390911681526020016100b1565b6100cd610108366004610629565b6102a8565b6100cd61011b366004610629565b610390565b6100a561012e366004610629565b60026020526000908152604090205460ff1681565b6100cd610151366004610629565b61053e565b6000546001600160a01b031633148061017e57503360009081526001602052604090205460ff165b6101a35760405162461bcd60e51b815260040161019a90610659565b60405180910390fd5b6001600160a01b0381166101f95760405162461bcd60e51b815260206004820152601960248201527f496e76616c696420617574686f72697479206164647265737300000000000000604482015260640161019a565b6001600160a01b03811660009081526001602052604090205460ff16156102595760405162461bcd60e51b8152602060048201526014602482015273416c726561647920616e20617574686f7269747960601b604482015260640161019a565b6001600160a01b0381166000818152600160208190526040808320805460ff1916909217909155517f550a8ae64ec9d6640b6f168a26d3e6364b90defe8110c92135aa775b279e54ea9190a250565b6000546001600160a01b03163314806102d057503360009081526001602052604090205460ff165b6102ec5760405162461bcd60e51b815260040161019a90610659565b6001600160a01b03811660009081526001602052604090205460ff166103475760405162461bcd60e51b815260206004820152601060248201526f4e6f7420616e20617574686f7269747960801b604482015260640161019a565b6001600160a01b038116600081815260016020526040808220805460ff19169055517f272215cde179041f7a3e8da6f8aabc7c8fc1336ccd73aba698cb825a80d3be489190a250565b6000546001600160a01b03163314806103b857503360009081526001602052604090205460ff165b6103d45760405162461bcd60e51b815260040161019a90610659565b6001600160a01b03811660009081526002602052604090205460ff161561043d5760405162461bcd60e51b815260206004820152601760248201527f4661726d20616c72656164792072656769737465726564000000000000000000604482015260640161019a565b806001600160a01b0316634f3ef2ed6040518163ffffffff1660e01b8152600401602060405180830381865afa15801561047b573d6000803e3d6000fd5b505050506040513d601f19601f8201168201806040525081019061049f91906106a7565b63ffffffff16156104f25760405162461bcd60e51b815260206004820152601960248201527f4661726d20616c72656164792068617320636869636b656e7300000000000000604482015260640161019a565b6001600160a01b038116600081815260026020526040808220805460ff19166001179055517f34deede75423e085ceb61f47c1ddb4466e42dcf614d55b7dbb1df16e64e9d5d49190a250565b6000546001600160a01b031633148061056657503360009081526001602052604090205460ff165b6105825760405162461bcd60e51b815260040161019a90610659565b6001600160a01b03811660009081526002602052604090205460ff166105e05760405162461bcd60e51b815260206004820152601360248201527211985c9b481b9bdd081c9959da5cdd195c9959606a1b604482015260640161019a565b6001600160a01b038116600081815260026020526040808220805460ff19169055517ff5063769a2e6c3022139e75b86de10fd56ad5d1c5b891d3c09eaf17fe95bb5499190a250565b60006020828403121561063b57600080fd5b81356001600160a01b038116811461065257600080fd5b9392505050565b6020808252602e908201527f4f6e6c7920617574686f72697479206f72206f776e65722063616e2063616c6c60408201526d103a3434b990333ab731ba34b7b760911b606082015260800190565b6000602082840312156106b957600080fd5b815163ffffffff8116811461065257600080fdfea2646970667358221220d49b13c680ba0b9204563b48c313bca0e3fabb377d925d5ba57d308a8757549964736f6c63430008140033",
  "linkReferences": {},
  "deployedLinkReferences": {}
}