{
  "_format": "hh-sol-artifact-1",
  "contractName": "ChickenEggTracker",
  "sourceName": "contracts/ChickenEggTracker.sol",
  "abi": [
    {
      "inputs": [
        {
          "internalType": "address",
          "name": "_farm",
          "type": "address"
        }
      ],
      "stateMutability": "nonpayable",
      "type": "constructor"
    },
    {
      "anonymous": false,
      "inputs": [
        {
          "indexed": false,
          "internalType": "string",
          "name": "chickenId",
          "type": "string"
        },
        {
          "indexed": false,
          "internalType": "string",
          "name": "breed",
          "type": "string"
        },
        {
          "indexed": false,
          "internalType": "string",
          "name": "birthDate",
          "type": "string"
        }
      ],
      "name": "ChickenRegistered",
      "type": "event"
    },
    {
      "anonymous": false,
      "inputs": [
        {
          "indexed": false,
          "internalType": "string",
          "name": "chickenId",
          "type": "string"
        }
      ],
      "name": "ChickenRemoved",
      "type": "event"
    },
    {
      "anonymous": false,
      "inputs": [
        {
          "indexed": false,
          "internalType": "string",
          "name": "eggId",
          "type": "string"
        },
        {
          "indexed": false,
          "internalType": "string",
          "name": "chickenId",
          "type": "string"
        },
        {
          "indexed": false,
          "internalType": "string",
          "name": "productionDate",
          "type": "string"
        }
      ],
      "name": "EggRegistered",
      "type": "event"
    },
    {
      "anonymous": false,
      "inputs": [
        {
          "indexed": false,
          "internalType": "string",
          "name": "eggId",
          "type": "string"
        }
      ],
      "name": "EggRemoved",
      "type": "event"
    },
    {
      "inputs": [
        {
          "internalType": "string",
          "name": "",
          "type": "string"
        }
      ],
      "name": "chickenExists",
      "outputs": [
        {
          "internalType": "bool",
          "name": "",
          "type": "bool"
        }
      ],
      "stateMutability": "view",
      "type": "function"
    },
    {
      "inputs": [
        {
          "internalType": "string",
          "name": "",
          "type": "string"
        }
      ],
      "name": "chickens",
      "outputs": [
        {
          "internalType": "string",
          "name": "chickenId",
          "type": "string"
        },
        {
          "internalType": "string",
          "name": "breed",
          "type": "string"
        },
        {
          "internalType": "string",
          "name": "birthDate",
          "type": "string"
        },
        {
          "internalType": "string",
          "name": "ipfsHash",
          "type": "string"
        },
        {
          "internalType": "bool",
          "name": "isActive",
          "type": "bool"
        },
        {
          "internalType": "uint256",
          "name": "registrationDate",
          "type": "uint256"
        }
      ],
      "stateMutability": "view",
      "type": "function"
    },
    {
      "inputs": [
        {
          "internalType": "string",
          "name": "",
          "type": "string"
        }
      ],
      "name": "eggExists",
      "outputs": [
        {
          "internalType": "bool",
          "name": "",
          "type": "bool"
        }
      ],
      "stateMutability": "view",
      "type": "function"
    },
    {
      "inputs": [
        {
          "internalType": "string",
          "name": "",
          "type": "string"
        }
      ],
      "name": "eggs",
      "outputs": [
        {
          "internalType": "string",
          "name": "eggId",
          "type": "string"
        },
        {
          "internalType": "string",
          "name": "chickenId",
          "type": "string"
        },
        {
          "internalType": "string",
          "name": "productionDate",
          "type": "string"
        },
        {
          "internalType": "string",
          "name": "ipfsHash",
          "type": "string"
        },
        {
          "internalType": "bool",
          "name": "isActive",
          "type": "bool"
        },
        {
          "internalType": "uint256",
          "name": "registrationDate",
          "type": "uint256"
        }
      ],
      "stateMutability": "view",
      "type": "function"
    },
    {
      "inputs": [],
      "name": "farm",
      "outputs": [
        {
          "internalType": "contract Farm",
          "name": "",
          "type": "address"
        }
      ],
      "stateMutability": "view",
      "type": "function"
    },
    {
      "inputs": [
        {
          "internalType": "string",
          "name": "_chickenId",
          "type": "string"
        }
      ],
      "name": "getChickenInfo",
      "outputs": [
        {
          "internalType": "string",
          "name": "chickenId",
          "type": "string"
        },
        {
          "internalType": "string",
          "name": "breed",
          "type": "string"
        },
        {
          "internalType": "string",
          "name": "birthDate",
          "type": "string"
        },
        {
          "internalType": "string",
          "name": "ipfsHash",
          "type": "string"
        },
        {
          "internalType": "bool",
          "name": "isActive",
          "type": "bool"
        },
        {
          "internalType": "uint256",
          "name": "registrationDate",
          "type": "uint256"
        }
      ],
      "stateMutability": "view",
      "type": "function"
    },
    {
      "inputs": [
        {
          "internalType": "string",
          "name": "_eggId",
          "type": "string"
        }
      ],
      "name": "getEggInfo",
      "outputs": [
        {
          "internalType": "string",
          "name": "eggId",
          "type": "string"
        },
        {
          "internalType": "string",
          "name": "chickenId",
          "type": "string"
        },
        {
          "internalType": "string",
          "name": "productionDate",
          "type": "string"
        },
        {
          "internalType": "string",
          "name": "ipfsHash",
          "type": "string"
        },
        {
          "internalType": "bool",
          "name": "isActive",
          "type": "bool"
        },
        {
          "internalType": "uint256",
          "name": "registrationDate",
          "type": "uint256"
        }
      ],
      "stateMutability": "view",
      "type": "function"
    },
    {
      "inputs": [
        {
          "internalType": "string",
          "name": "_chickenId",
          "type": "string"
        },
        {
          "internalType": "string",
          "name": "_breed",
          "type": "string"
        },
        {
          "internalType": "string",
          "name": "_birthDate",
          "type": "string"
        },
        {
          "internalType": "string",
          "name": "_ipfsHash",
          "type": "string"
        }
      ],
      "name": "registerChicken",
      "outputs": [],
      "stateMutability": "nonpayable",
      "type": "function"
    },
    {
      "inputs": [
        {
          "internalType": "string",
          "name": "_eggId",
          "type": "string"
        },
        {
          "internalType": "string",
          "name": "_chickenId",
          "type": "string"
        },
        {
          "internalType": "string",
          "name": "_productionDate",
          "type": "string"
        },
        {
          "internalType": "string",
          "name": "_ipfsHash",
          "type": "string"
        }
      ],
      "name": "registerEgg",
      "outputs": [],
      "stateMutability": "nonpayable",
      "type": "function"
    },
    {
      "inputs": [
        {
          "internalType": "string",
          "name": "_chickenId",
          "type": "string"
        }
      ],
      "name": "removeChicken",
      "outputs": [],
      "stateMutability": "nonpayable",
      "type": "function"
    },
    {
      "inputs": [
        {
          "internalType": "string",
          "name": "_eggId",
          "type": "string"
        }
      ],
      "name": "removeEgg",
      "outputs": [],
      "stateMutability": "nonpayable",
      "type": "function"
    },
    {
      "inputs": [
        {
          "internalType": "string",
          "name": "_chickenId",
          "type": "string"
        },
        {
          "internalType": "string",
          "name": "_ipfsHash",
          "type": "string"
        }
      ],
      "name": "updateChickenInfo",
      "outputs": [],
      "stateMutability": "nonpayable",
      "type": "function"
    },
    {
      "inputs": [
        {
          "internalType": "string",
          "name": "_eggId",
          "type": "string"
        },
        {
          "internalType": "string",
          "name": "_ipfsHash",
          "type": "string"
        }
      ],
      "name": "updateEggInfo",
      "outputs": [],
      "stateMutability": "nonpayable",
      "type": "function"
    }
  ],
  "bytecode": "0x608060405234801561001057600080fd5b5060405161179538038061179583398101604081905261002f91610054565b600080546001600160a01b0319166001600160a01b0392909216919091179055610084565b60006020828403121561006657600080fd5b81516001600160a01b038116811461007d57600080fd5b9392505050565b611702806100936000396000f3fe608060405234801561001057600080fd5b50600436106100cf5760003560e01c8063a042c6421161008c578063d1f6f8d711610066578063d1f6f8d7146101df578063d2b714ec146101f2578063d55de4f814610220578063d8776ec91461023357600080fd5b8063a042c642146101a6578063c0b54a02146101b9578063c80cdf1c146101cc57600080fd5b806323f99352146100d4578063255000c4146100e957806325fcf635146100fc57806336e9332d1461012a5780634835c582146101555780638443820b14610193575b600080fd5b6100e76100e236600461123f565b610246565b005b6100e76100f736600461123f565b6103a0565b61010f61010a36600461123f565b6104e7565b604051610121969594939291906112cc565b60405180910390f35b60005461013d906001600160a01b031681565b6040516001600160a01b039091168152602001610121565b61018361016336600461123f565b805160208183018101805160048252928201919093012091525460ff1681565b6040519015158152602001610121565b61010f6101a136600461123f565b61074a565b6100e76101b436600461132f565b610a52565b6100e76101c73660046113dc565b610cd4565b61010f6101da36600461123f565b610deb565b6100e76101ed36600461132f565b610e11565b61018361020036600461123f565b805160208183018101805160038252928201919093012091525460ff1681565b61010f61022e36600461123f565b61104d565b6100e76102413660046113dc565b6110a7565b60008054906101000a90046001600160a01b03166001600160a01b0316638da5cb5b6040518163ffffffff1660e01b8152600401602060405180830381865afa158015610297573d6000803e3d6000fd5b505050506040513d601f19601f820116820180604052508101906102bb9190611440565b6001600160a01b0316336001600160a01b0316146102f45760405162461bcd60e51b81526004016102eb90611470565b60405180910390fd5b60048160405161030491906114b6565b9081526040519081900360200190205460ff166103335760405162461bcd60e51b81526004016102eb906114d2565b600060028260405161034591906114b6565b908152604051908190036020018120600401805492151560ff19909316929092179091557e3fcb0e21c3ea6743f086bc7375c3ed024edbc0e919e2dc41736c76a6350a02906103959083906114fe565b60405180910390a150565b60008054906101000a90046001600160a01b03166001600160a01b0316638da5cb5b6040518163ffffffff1660e01b8152600401602060405180830381865afa1580156103f1573d6000803e3d6000fd5b505050506040513d601f19601f820116820180604052508101906104159190611440565b6001600160a01b0316336001600160a01b0316146104455760405162461bcd60e51b81526004016102eb90611470565b60038160405161045591906114b6565b9081526040519081900360200190205460ff166104845760405162461bcd60e51b81526004016102eb90611511565b600060018260405161049691906114b6565b908152604051908190036020018120600401805492151560ff19909316929092179091557fd517b7c4617036dab2cddc650d2214fa0ae7a7ce2248aa6a05f7c7a4bcca1ca2906103959083906114fe565b805160208183018101805160028252928201919093012091528054819061050d90611541565b80601f016020809104026020016040519081016040528092919081815260200182805461053990611541565b80156105865780601f1061055b57610100808354040283529160200191610586565b820191906000526020600020905b81548152906001019060200180831161056957829003601f168201915b50505050509080600101805461059b90611541565b80601f01602080910402602001604051908101604052809291908181526020018280546105c790611541565b80156106145780601f106105e957610100808354040283529160200191610614565b820191906000526020600020905b8154815290600101906020018083116105f757829003601f168201915b50505050509080600201805461062990611541565b80601f016020809104026020016040519081016040528092919081815260200182805461065590611541565b80156106a25780601f10610677576101008083540402835291602001916106a2565b820191906000526020600020905b81548152906001019060200180831161068557829003601f168201915b5050505050908060030180546106b790611541565b80601f01602080910402602001604051908101604052809291908181526020018280546106e390611541565b80156107305780601f1061070557610100808354040283529160200191610730565b820191906000526020600020905b81548152906001019060200180831161071357829003601f168201915b505050506004830154600590930154919260ff1691905086565b60608060608060008060038760405161076391906114b6565b9081526040519081900360200190205460ff166107925760405162461bcd60e51b81526004016102eb90611511565b60006001886040516107a491906114b6565b90815260200160405180910390206040518060c00160405290816000820180546107cd90611541565b80601f01602080910402602001604051908101604052809291908181526020018280546107f990611541565b80156108465780601f1061081b57610100808354040283529160200191610846565b820191906000526020600020905b81548152906001019060200180831161082957829003601f168201915b5050505050815260200160018201805461085f90611541565b80601f016020809104026020016040519081016040528092919081815260200182805461088b90611541565b80156108d85780601f106108ad576101008083540402835291602001916108d8565b820191906000526020600020905b8154815290600101906020018083116108bb57829003601f168201915b505050505081526020016002820180546108f190611541565b80601f016020809104026020016040519081016040528092919081815260200182805461091d90611541565b801561096a5780601f1061093f5761010080835404028352916020019161096a565b820191906000526020600020905b81548152906001019060200180831161094d57829003601f168201915b5050505050815260200160038201805461098390611541565b80601f01602080910402602001604051908101604052809291908181526020018280546109af90611541565b80156109fc5780601f106109d1576101008083540402835291602001916109fc565b820191906000526020600020905b8154815290600101906020018083116109df57829003601f168201915b5050509183525050600482015460ff161515602080830191909152600590920154604091820152825191830151908301516060840151608085015160a090950151939d929c50909a509850919650945092505050565b60008054906101000a90046001600160a01b03166001600160a01b0316638da5cb5b6040518163ffffffff1660e01b8152600401602060405180830381865afa158015610aa3573d6000803e3d6000fd5b505050506040513d601f19601f82011682018060405250810190610ac79190611440565b6001600160a01b0316336001600160a01b031614610af75760405162461bcd60e51b81526004016102eb90611470565b600484604051610b0791906114b6565b9081526040519081900360200190205460ff1615610b605760405162461bcd60e51b81526020600482015260166024820152751159d9c8185b1c9958591e481c9959da5cdd195c995960521b60448201526064016102eb565b600383604051610b7091906114b6565b9081526040519081900360200190205460ff16610b9f5760405162461bcd60e51b81526004016102eb90611511565b6040518060c0016040528085815260200184815260200183815260200182815260200160011515815260200142815250600285604051610bdf91906114b6565b90815260405190819003602001902081518190610bfc90826115c9565b5060208201516001820190610c1190826115c9565b5060408201516002820190610c2690826115c9565b5060608201516003820190610c3b90826115c9565b5060808201516004828101805460ff19169215159290921790915560a09092015160059091015560405160019190610c749087906114b6565b908152604051908190036020018120805492151560ff19909316929092179091557fad7a51cd466740f61749877d9c66772e0a9d1f2759aa7591f6ed69d4107c753c90610cc690869086908690611689565b60405180910390a150505050565b60008054906101000a90046001600160a01b03166001600160a01b0316638da5cb5b6040518163ffffffff1660e01b8152600401602060405180830381865afa158015610d25573d6000803e3d6000fd5b505050506040513d601f19601f82011682018060405250810190610d499190611440565b6001600160a01b0316336001600160a01b031614610d795760405162461bcd60e51b81526004016102eb90611470565b600482604051610d8991906114b6565b9081526040519081900360200190205460ff16610db85760405162461bcd60e51b81526004016102eb906114d2565b80600283604051610dc991906114b6565b90815260200160405180910390206003019081610de691906115c9565b505050565b805160208183018101805160018252928201919093012091528054819061050d90611541565b60008054906101000a90046001600160a01b03166001600160a01b0316638da5cb5b6040518163ffffffff1660e01b8152600401602060405180830381865afa158015610e62573d6000803e3d6000fd5b505050506040513d601f19601f82011682018060405250810190610e869190611440565b6001600160a01b0316336001600160a01b031614610eb65760405162461bcd60e51b81526004016102eb90611470565b600384604051610ec691906114b6565b9081526040519081900360200190205460ff1615610f265760405162461bcd60e51b815260206004820152601a60248201527f436869636b656e20616c7265616479207265676973746572656400000000000060448201526064016102eb565b6040518060c0016040528085815260200184815260200183815260200182815260200160011515815260200142815250600185604051610f6691906114b6565b90815260405190819003602001902081518190610f8390826115c9565b5060208201516001820190610f9890826115c9565b5060408201516002820190610fad90826115c9565b5060608201516003820190610fc290826115c9565b50608082015160048201805460ff191691151591909117905560a090910151600590910155604051600190600390610ffb9087906114b6565b908152604051908190036020018120805492151560ff19909316929092179091557f6ac67c2f2a0c6c740d60d598f694dadb2d190da3b00d33333c8aa1061552401490610cc690869086908690611689565b60608060608060008060048760405161106691906114b6565b9081526040519081900360200190205460ff166110955760405162461bcd60e51b81526004016102eb906114d2565b60006002886040516107a491906114b6565b60008054906101000a90046001600160a01b03166001600160a01b0316638da5cb5b6040518163ffffffff1660e01b8152600401602060405180830381865afa1580156110f8573d6000803e3d6000fd5b505050506040513d601f19601f8201168201806040525081019061111c9190611440565b6001600160a01b0316336001600160a01b03161461114c5760405162461bcd60e51b81526004016102eb90611470565b60038260405161115c91906114b6565b9081526040519081900360200190205460ff1661118b5760405162461bcd60e51b81526004016102eb90611511565b80600183604051610dc991906114b6565b634e487b7160e01b600052604160045260246000fd5b600082601f8301126111c357600080fd5b813567ffffffffffffffff808211156111de576111de61119c565b604051601f8301601f19908116603f011681019082821181831017156112065761120661119c565b8160405283815286602085880101111561121f57600080fd5b836020870160208301376000602085830101528094505050505092915050565b60006020828403121561125157600080fd5b813567ffffffffffffffff81111561126857600080fd5b611274848285016111b2565b949350505050565b60005b8381101561129757818101518382015260200161127f565b50506000910152565b600081518084526112b881602086016020860161127c565b601f01601f19169290920160200192915050565b60c0815260006112df60c08301896112a0565b82810360208401526112f181896112a0565b9050828103604084015261130581886112a0565b9050828103606084015261131981876112a0565b9415156080840152505060a00152949350505050565b6000806000806080858703121561134557600080fd5b843567ffffffffffffffff8082111561135d57600080fd5b611369888389016111b2565b9550602087013591508082111561137f57600080fd5b61138b888389016111b2565b945060408701359150808211156113a157600080fd5b6113ad888389016111b2565b935060608701359150808211156113c357600080fd5b506113d0878288016111b2565b91505092959194509250565b600080604083850312156113ef57600080fd5b823567ffffffffffffffff8082111561140757600080fd5b611413868387016111b2565b9350602085013591508082111561142957600080fd5b50611436858286016111b2565b9150509250929050565b60006020828403121561145257600080fd5b81516001600160a01b038116811461146957600080fd5b9392505050565b60208082526026908201527f4f6e6c79206661726d206f776e65722063616e2063616c6c20746869732066756040820152653731ba34b7b760d11b606082015260800190565b600082516114c881846020870161127c565b9190910192915050565b6020808252601290820152711159d9c81b9bdd081c9959da5cdd195c995960721b604082015260600190565b60208152600061146960208301846112a0565b60208082526016908201527510da1a58dad95b881b9bdd081c9959da5cdd195c995960521b604082015260600190565b600181811c9082168061155557607f821691505b60208210810361157557634e487b7160e01b600052602260045260246000fd5b50919050565b601f821115610de657600081815260208120601f850160051c810160208610156115a25750805b601f850160051c820191505b818110156115c1578281556001016115ae565b505050505050565b815167ffffffffffffffff8111156115e3576115e361119c565b6115f7816115f18454611541565b8461157b565b602080601f83116001811461162c57600084156116145750858301515b600019600386901b1c1916600185901b1785556115c1565b600085815260208120601f198616915b8281101561165b5788860151825594840194600190910190840161163c565b50858210156116795787850151600019600388901b60f8161c191681555b5050505050600190811b01905550565b60608152600061169c60608301866112a0565b82810360208401526116ae81866112a0565b905082810360408401526116c281856112a0565b969550505050505056fea2646970667358221220ff09b31940bafc3a7c847a045965cc9d8ed27d5dcaa184626d201b8c33ed427164736f6c63430008140033",
  "linkReferences": {},
  "deployedLinkReferences": {}
}